:020000040800F2
:1000000000800120E9090008B5090008B7090008C7
:10001000B9090008BB090008BD090008000000007C
:10002000000000000000000000000000BF09000800
:10003000C109000800000000C3090008C509000844
:10004000390A0008390A0008390A0008390A000884
:10005000390A0008390A0008390A0008390A000874
:10006000390A0008390A0008390A0008390A000864
:10007000390A0008390A0008390A0008390A000854
:10008000390A0008390A0008390A0008390A000844
:10009000390A0008390A0008390A0008390A000834
:1000A000390A0008390A0008390A0008390A000824
:1000B000390A0008390A0008390A0008390A000814
:1000C000390A0008390A0008390A0008390A000804
:1000D000390A0008390A0008390A0008390A0008F4
:1000E000390A0008390A0008390A0008390A0008E4
:1000F000390A0008390A0008390A0008390A0008D4
:10010000390A0008390A0008390A0008390A0008C3
:10011000390A0008390A0008390A0008390A0008B3
:10012000390A0008390A0008390A0008390A0008A3
:10013000390A0008390A0008390A0008390A000893
:10014000390A0008390A0008390A0008C9090008F4
:10015000390A0008390A0008390A0008390A000873
:10016000390A0008390A0008390A0008390A000863
:10017000390A0008390A0008390A0008000000009E
:08018000390A0008390A0008E1
:1001880010B5054C237833B9044B13B10448AFF3C9
:1001980000800123237010BD6001002000000000D2
:1001A800944C000808B5034B1BB103490348AFF34F
:1001B800008008BD0000000064010020944C000885
:1001C8002DE9F04F8DB01422002107A804F056FD48
:1001D800AC4BDFF8B482DA6CDFF8B092DFF8B0B27B
:1001E800DFF8B0A242F01002DA64DA6C02F0100212
:1001F8000192019ADA6C42F00402DA64DA6C02F0D5
:1002080004020292029ADA6C42F08002DA64DA6C32
:1002180002F080020392039ADA6C42F00102DA6477
:10022800DA6C02F001020492049ADA6C42F00202DB
:10023800DA64DA6C02F002020592059ADA6C42F08E
:100248000802DA64DB6C03F00803069340460022D8
:1002580040F20911069B00F0B7FD484600220C2128
:1002680000F0B2FD584601224FF4007100F0ACFDD9
:10027800504600228021022500F0A6FDF422002429
:100288000327CDE9072507A90D2240460B92012631
:10029800CDE9094700F0BAFC082307A94046CDE993
:1002A8000736CDE9094500F0B1FC4FF490134FF43F
:1002B8001051CDE90713584607A9099400F0A6FC88
:1002C80040F60701CDE90714584607A9099400F03C
:1002D8009DFC4FF4FC710B23CDE90715584607A97F
:1002E8000B93CDE9094400F091FC2F21CDE90714C7
:1002F8004FF0904007A9099500F088FC4FF490133F
:100308001021CDE907134FF0904007A9099400F098
:100318007DFC48F2C071CDE907150B2307A94FF002
:1003280090400B93CDE9094400F070FC4FF2332163
:10033800CDE907150B2307A948460B93CDE90944D6
:1003480000F064FC042307A94846CDE90736CDE947
:10035800096700F05BFC4FF4807307A94046CDE9BC
:100368000736CDE9096700F051FC4FF400730D2200
:1003780007A94046CDE907350B92CDE9094400F0BD
:1003880045FC12224FF44063CDE9073207A9042344
:1003980048460B93CDE9094700F038FC4FF47F41FC
:1003A800CDE907150B2307A950460B93CDE909445E
:1003B80000F02CFC4FF4007307A95846CDE9073626
:1003C8004FF0050BCDE9094400F020FC4FF49013E1
:1003D80007A95046CDE907B3099400F017FC1A2382
:1003E80007A95046CDE90735CDE90947CDF82CB026
:1003F80000F00CFC6023CDE9073507A90723504618
:100408000B93CDE9096700F001FC802307A950464A
:10041800CDE90736CDE9094700F0F8FB082307A91D
:100428004846CDE90736CDE9094400F0EFFB122232
:10043800C023CDE9073207A9042348460B93CDE929
:10044800094700F0E3FB4FF480724FF4901307A9BB
:100458004846CDE90723099400F0D8FB07A9404690
:10046800CDE90766CDE9094400F0D0FB4FF49013BD
:1004780007A94046CDE90834079500F0C7FB0DB041
:10048800BDE8F08F0010024000100048000400484A
:1004980000080048000C004830B597B044220021FD
:1004A80005A8142504F0EAFB2A460021684604F052
:1004B800E5FB4FF4007001F02FF9044608B172B65D
:1004C800FEE701F019F9184AD2F8903023F0180322
:1004D800C2F89030602201230D9202222820CDE933
:1004E8000B34CDE90F23079311930723CDE91203AA
:1004F80005A8CDE91422059501F096FC08B172B65D
:10050800FEE7CDE902000F22032304900421684688
:10051800CDE9002301F00EFF08B172B6FEE702F044
:1005280095FA17B030BD00BF0010024008B500F0C2
:10053800A7FAFFF7B1FFFFF743FE00F067F804F0F2
:1005480081F8FEE772B6FEE700B595B04FF4807209
:100558000C924FF08071052206920F910022012122
:10056800CDE90312CDE90D22CDE911220B921392A8
:100578000092102202924FF48002034601910592E4
:1005880006A96A46044801F06DFA003818BF012030
:1005980015B05DF804FB00BF7C01002000B595B0E4
:1005A8004FF480730C93062306931748002341F2F7
:1005B800883206A9CDE90D33CDE911330F930B939A
:1005C800139301F00BFAE0B90223CDE900330122BD
:1005D8001023CDE902324FF480010523CDE905133C
:1005E8004FF0807304900F93074841F288336A46AE
:1005F80006A901F037FA003818BF012015B05DF8D8
:1006080004FB0120FAE700BF7C0100200A480B4ADE
:1006180008B50023C0E900230422C0E902231722F9
:10062800C0E90423836101F089F918B1BDE80840E5
:10063800FFF788BF08BD00BF7C010020001000A0A4
:1006480010B5044688B01422002103A804F016FB54
:100658002268144B9A4222D103F1204303F5003358
:1006680003211A6D104842F480721A651A6D02F45B
:1006780080720192019ADA6C42F01002DA64DB6C43
:1006880003F010030293029B4FF47C420223CDE94E
:1006980003230A23CDE9061303A900F0B7FA08B02B
:1006A80010BD00BF001000A00010004810B590B0A9
:1006B80066234FF48074029334480894002341F26F
:1006C800883202A9CDE90933CDE90D330B9307939D
:1006D8000F9301F083F908B1042054E099232B48C3
:1006E800029341F2883202A901F078F90028F3D187
:1006F80041F28830FFF728FF0028EDD185230293C7
:100708004FF080730B930123CDE90900CDE90C303C
:10071800CDE90E00079041F288321C48089402A9DE
:1007280001F05CF90028D7D1184841F288320DF160
:10073800070101F086FA0028CED1FFF72FFF002825
:10074800CAD1812302939DF80730F02203F00F03EA
:1007580092FAA2F20A21B2FA82F201FA02F21343E1
:100768000A488DF8073041F2883202A901F036F9BB
:100778000028B1D1054841F288320DF1070101F096
:1007880004FA0028A8D110B010BD00BF7C010020D9
:1007980010B58EB04FF480730693EB2300934FF49B
:1007A800406307934FF400530393019100234FF0E4
:1007B8004071CDE908310A21CDE90A2304460591A3
:1007C8000A4841F288326946CDE90C3301F006F94E
:1007D80050B9064841F28832214601F032FA003811
:1007E80018BF01200EB010BD0120FBE77C010020DE
:1007F8002DE9F04107468EB00E46002404F58074BA
:10080800A642FBD24FF4807306931223A41B0093D5
:100818004FF44063944207934FF4005328BF1446A3
:10082800B51803934FF040720023CDE90832CDE9A3
:100838000B33DFF8588005930D9301960A94FFF760
:10084800ADFE00BB114841F28832694601F0C6F896
:10085800C8B941F288323946404601F096F990B954
:1008680041F28830FFF770FE68B9264406F58073B8
:10087800AB4227448CBFAC1B4FF48074B542DCD824
:100888000EB0BDE8F0810120FAE700BF7C0100202E
:1008980000B58FB04FF480730693202300934FF474
:1008A800806307934FF4005303930023CDE9083383
:1008B800CDE90B33019005930D93FFF76FFE18B147
:1008C80001200FB05DF804FB074841F28832694601
:1008D80001F084F80028F3D14FF44870FFF734FE94
:1008E800003818BF0120ECE77C01002000B591B06A
:1008F8004FF480734FF080720893702302930B9229
:1009080000230122CDE90C231348079341F28832D2
:1009180002A9CDE90933CDE90E3301F05FF818B12A
:10092800012011B05DF804FB0B4841F288320DF14B
:10093800070101F086F90028F2D19DF8073013F07D
:100948003A0FEDD113F0440004D113F0800F08BF23
:100958000220E6E70820E4E77C0100204FF48053FA
:100968004FF08072C0E9002383604FF480714FF428
:100978008033C0E903130020704700000A4B1A6E49
:1009880042F001021A661A6E82B002F00102009269
:10099800009A9A6D42F080529A659B6D03F08053DD
:1009A8000193019B02B0704700100240FEE7FEE78A
:1009B800FEE7FEE7FEE770477047704700F076B83D
:1009C800014800F0ADBA00BF98160020034AD2F8DB
:1009D800883043F47003C2F88830704700ED00E0B7
:1009E800DFF834D0FFF7F2FF0C480D490D4A002319
:1009F80002E0D458C4500433C4188C42F9D30A4ACC
:100A08000A4C002301E013600432A242FBD304F035
:100A180011F9FFF78BFDFEE70080012000000020A0
:100A280060010020604D000860010020182B0020A4
:100A3800FEE7000038B50F4B0546187808B90120C5
:100A480038BD0D4A4FF47A73B3FBF0F31068B0FB6E
:100A5800F3F000F0A3F804460028F0D10F2DEED8EB
:100A6800024629464FF0FF3000F058F8034B204665
:100A78001D60E5E7040000200000002008000020B9
:100A8800094A136843F4807310B50320136000F01B
:100A980033F80020FFF7CEFF044618B9FFF76EFFC2
:100AA800204610BD0124FBE700200240034A044B06
:100AB80011681B780B441360704700BFC001002009
:100AC80004000020014B1868704700BFC0010020D7
:100AD80038B50446FFF7F6FF631C1CBF054B1B78AF
:100AE800054618BFE418FFF7EDFF431BA342FAD3EE
:100AF80038BD00BF040000200749CA6822F4E0623C
:100B08000302120403F4E063120C134343F0BF63BF
:100B180043F40033CB60704700ED00E0164B30B56E
:100B2800DC68C4F30224C4F10705231D042D28BF83
:100B38000425062B4FF0FF338CBF033C002403FA37
:100B480005F521EA0501A34022EA0302A140002895
:100B580041EA0203ACBF00F16040084A4FEA0313C0
:100B6800B8BF00F00F00DBB2AABF00F56140135414
:100B780080F8003330BD00BF00ED00E014ED00E068
:100B8800002808DB0123420900F01F0003FA00F0E7
:100B9800014B43F82200704700E100E00138B0F152
:100BA800807F0BD24FF0E023054A5861F02182F88C
:100BB80023100020072298611A61704701207047AE
:100BC80000ED00E090F82530022B06D00423C36323
:100BD800002380F824300120704703681A6822F047
:100BE8000E021A601A6822F001021A60D0E9101386
:100BF800012203F01C0302FA03F34B60002380F880
:100C0800252080F824301846704700002DE9F74F5A
:100C1800DFF8B091694C00230A6832FA03F502D173
:100C280003B0BDE8F08F4FF0010E0EFA03FE1EEA86
:100C3800020200F090804D6805F003064FEA430871
:100C48004FF0030C771E0CFA08FC012F6FEA0C0C0E
:100C580000F28380876807EA0C0ACF6807FA08F76A
:100C680047EA0A078760476827EA0E0EC5F30017A8
:100C78009F4047EA0E074760C76807EA0C0E8F686F
:100C880007FA08F747EA0E07022EC76071D007680F
:100C980006FA08F607EA0C07374315F4403F0760E1
:100CA80059D0D9F8606046F00106C9F86060D9F8F3
:100CB800606023F0030707F1804706F0010607F597
:100CC8008037019603F0030E019EBE684FEA8E0E30
:100CD8004FF00F0C0CFA0EFCB0F1904F26EA0C0CFA
:100CE8005FD0374EB0425ED006F58066B0425CD029
:100CF80006F58066B0425AD006F58066B04258D0F4
:100D080006F58066B04256D006F58066B0420CBF44
:100D18000626072606FA0EF646EA0C06BE60A66800
:100D2800D74315F4801F0CBF3E401643A660E66803
:100D380015F4001F0CBF3E401643E660666815F4C4
:100D4800003F0CBF3E40164366602668ED0354BF63
:100D58003E401643266001335EE7032E8CD1C76AF6
:100D680027EA0E0EC5F3C0079F4047EA0E07C76281
:100D78008DE74FEAD30A00EB8A0A03F0070BDAF88B
:100D880020704FEA8B0B4FF00F0E0EFA0BFE27EA7E
:100D98000E0E0F6907FA0BF747EA0E07CAF820701C
:100DA80075E70026B6E70126B4E70226B2E7032670
:100DB800B0E70426AEE70526ACE700BF0004014013
:100DC80000040048001002400AB181617047816246
:100DD8007047F0B504468BB060B390F8BD33056832
:100DE80003F0FF021BB980F8BC2303F077FD03234F
:100DF80084F8BD33EB6B254613F4807355F8100B5C
:100E080008BF236101F0D8FE0FCD6E460FC60FCD87
:100E18000FC695E8030086E803002546271D97E8D6
:100E28000E0055F8100B01F019FE064620B10223FA
:100E380084F8BD33012554E00146206801F0C2FE64
:100E48003046D4F804C01C264FF0010E0146C2B249
:100E5800944500F101001CD800231C261946D8B27D
:100E6800844503F1010322D80FCD6E460FC60FCD7E
:100E78000FC695E8030086E8030097E80E0020688F
:100E880001F01EFF01230546F0B1022284F8BD23BC
:100E9800D0E706FB0243C3E9111183F83DE083F86C
:100EA8003C20A3F8422083F83F101965CFE706FBE2
:100EB8000042C2E9811182F8FD1182F8FC0182F832
:100EC800FF11C2F81012CAE784F8380084F8BD335D
:100ED800636A012B02D1204600F0FAFB206802F079
:100EE800EDF928460BB0F0BD10B50446006894F83B
:100EF800BC33012B12D0012384F8BC33A36A012B25
:100F080002BF836B43F48033836301F04FFE206894
:100F180002F0C6F9002084F8BC0310BD0220FCE7EB
:100F28002DE9F04F056885B00446284602F003FA1B
:100F38000090002840F03D81206802F0CDF900289B
:100F480000F03781206802F0C7F9860748BF226899
:100F5800206842BF536903F00203536102F0BCF9F1
:100F6800C0062AD52268936923F0100393612F6A7B
:100F7800C7F34343022B07F00F0640F01D8147F6E5
:100F8800F0731F4214D01C2303FB0646C7F30A184C
:100F98004246D6F80812284602F0FEF8D6F808228B
:100FA800D6F8143242444344C6F80822C6F814322C
:100FB8002268936943F010039361206802F08CF96A
:100FC800010300F10D81206802F086F942030CD577
:100FD800206802F08DF92646019005F510694FF05A
:100FE8000008019B002B40F05D81206802F074F935
:100FF800002815DAD5F8043823F00103C5F80438B9
:1010080094F8F433012B40F0CD81002184F8F413D7
:10101800204600F070FB2268536903F000435361D7
:10102800206802F059F900050BD5D5F80838D9071A
:1010380002D5204603F0F0FC2268536903F40063EC
:101048005361206802F048F9020114D523685A69EF
:1010580002F000625A6194F8F423002A40F0A68155
:10106800012184F8F4135B6DC3F38303C4F8F833E8
:10107800204600F040FB206802F02EF9C30436D564
:10108800D5F80438206823F001031021C5F8043886
:1010980001F0C8FD05F5006605F510634FF67F31D0
:1010A80062680098824200F28581F36943F0011377
:1010B800F361236B002B00F09581D6F8843043F060
:1010C8000B03C6F88430736C43F00B037364D5F8D4
:1010D8000038206823F4FE63C5F8003804F5717100
:1010E80002F03EF92268536903F480535361206883
:1010F80002F0F2F8870416D5206802F020F920687B
:1011080001F086FEE060256801F0A8F9227B01461F
:10111800284601F0DBFC204603F06BFC226853698B
:1011280003F400535361206802F0D6F8060707D588
:10113800204603F05AFC2268536903F00803536100
:10114800206802F0C9F8C50208D50021204603F03E
:1011580099FC2268536903F480135361206802F0F4
:10116800BBF8800208D50021204603F087FC2268DE
:10117800536903F400135361206802F0ADF841008D
:1011880007D5204603F082FC2268536903F08043A8
:101198005361206802F0A0F842070AD523685D6809
:1011A8006B0702D5204603F075FC226853682B4371
:1011B800536005B0BDE8F08F062B7FF4F9AE082226
:1011C80004F57171284601F0E7FF1C2303FB06466E
:1011D800C7F30A17D6F814321F44C6F81472E7E6A4
:1011E8002068DFF81892DFF818A202F079F805F500
:1011F800306B06460027002E3FF4E5AEF30744D5D2
:10120800F9B22068019102F07BF810F0010F019902
:10121800804610D00122CBF808202268106C02F515
:10122800306202EB47125045936837D1180431D524
:101238004FF40041916018F0080F13D0226808217C
:10124800CBF80810116C02F5306202EB47124945E1
:10125800906804D9010444BF4FF4004191602046CE
:1012680003F0ACFB18F0100F1CBF1022CBF80820BD
:1012780018F0200F1CBF2022CBF8082018F4005FBC
:101288001CBF4FF40053CBF80830013776080BF138
:10129800200BB0E7980644BF20209060204603F05A
:1012A80093FBC8E7019BDA0773D55FFA88FB2068D0
:1012B800594602F02EF8C307074610D5D5F834383A
:1012C800012008F00F0200FA02F223EA0203C5F82F
:1012D80034385946C9F80800204603F07EFB380721
:1012E80044BF0823C9F80830F90644BF1023C9F8D9
:1012F80008307A0644BF4023C9F80830BB0706D532
:101308004146284601F08EFC0223C9F808303F0602
:101318003FD5D6E914329A423BD89B1A726CD4F85E
:1013280000A0934228BF134603339B0802930AF593
:10133800106303EB48130393039B02999A6992B2D3
:101348008A42D6E9147322D39F420BD8DAF834388C
:1013580008F00F02012101FA02F223EA0203CAF897
:10136800343816E0FF1A736CB16C9F4228BF1F46D1
:10137800FB1C9B0802935A46BBB2504601F04AFE3A
:10138800B36C3B44B364736D3B447365D4E79F42CD
:10139800DCD9019B5B0808F1010801931C3609F1AF
:1013A80020091EE6204603F04FFB34E6204603F0F2
:1013B80033FB60E699601A6822F400121A60C3F8D9
:1013C8000812D3F8002222F40012C3F80022D3F83E
:1013D800002242F00062C3F80022009A0132009213
:1013E80020335DE6736943F4005343F02B037361C4
:1013F800336943F00B03336169E600BF0A30544F89
:101408000A31544F10B590F8BC23012A04460BD07A
:10141800012280F8BC2380F83810006801F030FF02
:10142800002084F8BC0310BD0220FCE770B501F071
:101438000F06C6EBC60411F0800F05464FEA840478
:101448004FF01C001FD000FB065004F13C010124A2
:10145800294480F83D408A604A780E70CB7002B10A
:10146800CE80022B04BF00230B7195F8BC33012BEF
:1014780012D00123286885F8BC3301F0D3FC002082
:1014880085F8BC0370BD00FB065004F5FE7100240E
:10149800294480F8FD41DEE70220F3E710B5044651
:1014A80001F00F00C0EBC00311F0800F4FEA830377
:1014B8004FF01C0216D002FB004203F13C0101234D
:1014C800214482F83D30087094F8BC33012B12D0C7
:1014D8000123206884F8BC3301F0E2FC002084F882
:1014E800BC0310BD02FB004203F5FE71002321443A
:1014F80082F8FD31E7E70220F3E738B501F00F0580
:101508001C2404FB050104FB050401F5FE71C4F865
:10151800103200230068C4F80822C4F8143284F892
:10152800FD3184F8FC511DB901F010FD002038BDD3
:1015380001F080FDFAE701F00F011C2303FB010015
:10154800D0F81402704738B501F00F051C2404FBCD
:10155800050104FB05043C31236500236365012371
:101568000068A26484F83D3084F83C501DB901F04D
:10157800EDFC002038BD01F05DFDFAE738B54368A1
:1015880001F00F059D4204462BD811F0800F4FF053
:101598001C001DD000FB054200FB054101233C3126
:1015A80082F83D3001238B700D7094F8BC239A4269
:1015B80019D0206884F8BC3301F00EFE25B92068E4
:1015C80004F5717101F0CCFE002084F8BC0338BD2D
:1015D80000FB01431A4603F5FE71002382F8FD3132
:1015E800E0E70120F3E70220F1E738B5436801F0AE
:1015F8000F029A4204462AD8C2EBC20311F0800FA8
:101608004FEA83034FF01C0018D000FB024003F19F
:101618003C010123214480F83D3000258D700A707B
:1016280094F8BC33012B14D00123206884F8BC3310
:1016380001F0FDFD84F8BC53284638BD00FB02408C
:1016480003F5FE710023214480F8FD31E5E7012010
:10165800F3E70220F1E710B590F8BC33012B0446FC
:1016680010D0012380F8BC330B06006807D501F0C1
:101678000F0101F0D7FA002084F8BC0310BD01F077
:10168800F5FAF8E70220F9E7006870B51204446A31
:1016980019B922438262002070BD836A4D1E04EB93
:1016A800134400235E1CDBB29D4205D83F3100EB9A
:1016B800810022434260EEE7403300EB83035B681E
:1016C80004EB13443346EDE7036800205962704782
:1016D8000268002180F8F4130123C0F8FC339369F1
:1016E80043F000639361536D43F0805343F0030369
:1016F8005365084670477047024A136843F480737D
:101708001360704700700040024B186800F4C06016
:10171800704700BF00700040174A1368B0F5007F9B
:1017280003F4C0631DD1B3F5007F01D100207047D9
:10173800136823F4C06343F4007313600F4B1B68F2
:1017480032214B430E49B3FBF1F30133516949058B
:1017580000D523B953695B05E8D503207047013BE1
:10176800F4E7B3F5806F1FBF136823F4C06343F435
:1017780080631360DAE700BF0070004000000020BB
:1017880040420F00024A536843F480635360704735
:10179800007000402DE9F0474E6A3EB1B2F1406F4B
:1017A8001FBF8B6A046803F1FF332361D1F81890D7
:1017B800D1E90775B9F1000F4FD04B690068D1F82E
:1017C80000A0D1F834E046EA0909D1E90B484FEA0C
:1017D800834C49EA020935B38B680E69C36149EA4B
:1017E80005059FB14AEA0703234343EA0803CC6887
:1017F80043EA0E033343234343EA0C032B43B2F17A
:10180800406F43610DD04B6883610AE04AEA0403E4
:1018180043EA080343EA0E03334343EA0C032B432A
:101828004361BDE8F0876FB14AEA0703234343EAFF
:101838000803CC6843EA0E03234343EA0C0343EA54
:101848000903DCE74AEA040343EA080343EA0E0310
:1018580043EA0C0343EA0903E2E745B304688B68EB
:10186800E36146EA05034E690869D1F834C043EAE2
:101878000205B604D1E90B8387B1384340EA080072
:101888000343C86843EA0C03034333432B43B2F1D1
:10189800406F6361C5D04B68A361C2E740EA0800A6
:1018A800034343EA0C0333432B436361B9E77FB136
:1018B800CC6A006846EA0703134323430C6B2343AF
:1018C8004C6B2343CC6823434C6943EA844396E733
:1018D800002EA6D0CB6A006833430E6B1A433243FE
:1018E8004E6B4B69324342EA8342426199E72DE9E4
:1018F800F041DDF8188004460E4615461F4622685A
:101908009368334214BF01230023AB4201D1002066
:1019180012E0B8F1FF3FF3D0FFF7D4F8C01B404501
:1019280002D8B8F1000FEAD1042384F83930E36B08
:1019380043F00103E3630120BDE8F08130B585B0D1
:101948000446FFF7BFF80346002C43D094F839202B
:1019580002F0FF014AB9039084F838102046FEF7D8
:101968006FFE41F28832039B22642068A1680268F6
:10197800013922F4706242EA01220260226C00926C
:10198800202100222046FFF7B2FFF0B922686568DF
:101998001168E36821F07F4143EA056321F01001F3
:1019A8000B431360D4E905310B432169556843EAB9
:1019B8000143094929400B435360136843F001036D
:1019C80013600123E06384F83930002384F8383049
:1019D80005B030BD0120FBE7FEF8E0FF2DE9F0433C
:1019E800044685B017468946FFF76CF894F8382006
:1019F800012A034634D0012284F8382094F839208B
:101A0800012A5FFA82F84FF0020627D10022E2632A
:101A1800039084F83960009720212046FFF767FF7C
:101A28000546A0B9024649462046FFF7B3FED9F855
:101A38002420039B4AB90097424631462046FFF7C7
:101A480056FF054618B92368DE6084F839800023FC
:101A580084F83830284605B0BDE8F0833546F6E707
:101A68000225F7E72DE9FF41044615461E4688463C
:101A7800FFF728F894F83820012A034640D00122BD
:101A880084F8382094F83920012AD7B236D1422177
:101A98000022E263039084F8391000962021204642
:101AA800FFF725FF20BB21682A688A626A684A62B4
:101AB800AA68CA620A68286922F44002024342F40A
:101AC80080020A60EA68C8F8282041464FF00062A0
:101AD8002046FFF75FFE039B00963A460821204602
:101AE800FFF705FF20B923680822DA6084F8397007
:101AF800002384F8383004B0BDE8F0810220F7E70D
:101B08000220F8E71FB50446FEF7DCFF94F83920F9
:101B1800034612F0020036D0002284F838202268EA
:101B2800116849070DD51168606B039321F0040112
:101B38001160FFF747F8039B18B1E26B42F004020B
:101B4800E263216803930A6842F002020A60226C89
:101B58000092022101222046FFF7C9FE039B90B99B
:101B680022680221D160226C009220210246204680
:101B7800FFF7BDFE38B92268536923F0406353610B
:101B8800012384F8393004B010BDF0B5044685B09F
:101B980016460F46FEF796FF94F838202568012A66
:101BA80003464CD0012284F8382094F83920012AC1
:101BB800D0B242D10022E263002F39D0122284F839
:101BC80039202A69013262622A69E7610132226298
:101BD8006A6922F040626A61626AA2B900960122CB
:101BE80002212046FFF783FE28B923680222DA6023
:101BF8002046FFF787FF012384F83930002384F853
:101C0800383005B0F0BD0096012204212046039328
:101C1800FFF76DFE0028EED1E269039B127885F884
:101C28002020E2690132E261626A013A6262D3E726
:101C3800E36B43F00803E363E0E70220DEE70220FA
:101C4800DFE7F0B5044685B016460F46FEF73AFFC3
:101C58002568D5F818C094F83820012A034650D0D2
:101C6800012284F8382094F83920012AD0B246D1CC
:101C78000022E263002F3DD0222284F839202A690D
:101C8800013222632A69A7620132E262696921F09E
:101C9800406141F080616961C5F818C0226BA2B942
:101CA8000096012202212046FFF721FE28B9236869
:101CB8000222DA602046FFF725FF012384F8393035
:101CC800002384F8383005B0F0BD009601220621C3
:101CD80020460393FFF70BFE0028EED1A26A95F881
:101CE80020101170A26A039B0132A262226B013A92
:101CF8002263D3E7E36B43F00803E363E0E70220E2
:101D0800DEE70220DFE7000037B51E4DAB6DDA00D5
:101D1800044618D5FFF7F8FCB0F5007F23D1802CD6
:101D280029D9A02C8CBF02200120174A136823F060
:101D3800070303431360136803F00703181A18BF57
:101D4800012003B030BDAB6D43F08053AB65AB6D84
:101D580003F080530193019BFFF7D6FCAB6D23F092
:101D68008053AB65D8E7802C07D808D0A4F170035E
:101D780058425841D9E70020D7E70320D5E7022089
:101D8800D3E700BF0010024000200240224B9A68AF
:101D9800D96812F00C0205D00C2A15D101F0030104
:101DA800012918D119681D48090755BFD3F894109F
:101DB8001968C1F30321C1F3031150F821004AB394
:101DC8000C2A09D000207047042A22D0082A144877
:101DD80018BF002070470020DA6802F00302022AC8
:101DE80015D00F49032A08BF0846D968DA68C2F334
:101DF80006224243D868C0F34160C1F302110130A2
:101E080001314000B2FBF1F2B2FBF0F07047054837
:101E1800EBE70448704700BF00100240BC4C0008C4
:101E280000127A000024F4002DE9F743054618B99A
:101E3800012003B0BDE8F083924C0368A668E76808
:101E4800D80606F00C0607F003073DD51EB10C2E88
:101E580066D1012F64D12368990702D5AB69002B9D
:101E6800E6D02368286A1A0756BFD4F89430236846
:101E78001B0903F0F00398423BD9FFF745FF002800
:101E8800D6D1236843F00803236023682A6A23F025
:101E9800F003134323606368EA6923F47F4343EA4A
:101EA80002236360FFF772FFA368774AC3F3031343
:101EB800D35C03F01F03D840744B1860744B186848
:101EC800FEF7B8FD0028B4D12B68D9075FD42B687A
:101ED8009A0700F19E802B68190700F1DB802B68B8
:101EE8005A0700F10181AB6A002B40F06A8100209B
:101EF8009FE7236843F008032360236823F0F00377
:101F0800034323606368EA6923F47F4343EA0223B7
:101F18006360002EC6D1FFF7F7FE0028C2D087E71E
:101F2800AB691BB3236843F001032360FEF7CAFDC6
:101F3800804623689B0711D5236843F00803236074
:101F480023682A6A23F0F003134323606368EA696D
:101F580023F47F4343EA02236360B5E7FEF7B2FD4B
:101F6800A0EB08000228E4D9032062E7236823F0E5
:101F780001032360FEF7A6FD804623689807A3D5D2
:101F8800FEF7A0FDA0EB08000228F6D9ECE7082E22
:101F980003D00C2E08D1032F06D123689B0396D5B6
:101FA8006B68002B93D143E76B68B3F5803F10D182
:101FB800236843F480332360FEF784FD804623685A
:101FC800980384D4FEF77EFDA0EB08006428F6D9B8
:101FD800CAE7B3F5A02F04D1236843F48023236014
:101FE800E6E7226822F480322260226822F4802206
:101FF8002260002BE0D1FEF765FD80462368990337
:102008007FF565AFFEF75EFDA0EB08006428F5D903
:10201800AAE7042E03D00C2E10D1022F0ED123686C
:102028005A0503D5EB68002B3FF402AF63682A69B1
:1020380023F0F85343EA026363604CE7EB687BB133
:10204800236843F480732360FEF73CFD074623684A
:102058005B05EBD4FEF736FDC01B0228F7D983E7F2
:10206800236823F480732360FEF72CFD074623685A
:1020780058057FF530AFFEF725FDC01B0228F6D9BD
:1020880072E700BF00100240AC4C000800000020BE
:10209800080000206B699BB1D4F8943043F0010329
:1020A800C4F89430FEF70EFD0746D4F894309B0729
:1020B8003FF515AFFEF706FDC01B0228F5D953E71B
:1020C800D4F8943023F00103C4F89430FEF7FAFCF6
:1020D8000746D4F8943098077FF501AFFEF7F2FC75
:1020E800C01B0228F5D93FE7A36DD90029D4A36DF9
:1020F80043F08053A365A36D03F080530193019BC4
:102108004FF00108894F3B68DA051DD5AB68012BF4
:102118002BD1D4F8903043F00103C4F89030FEF787
:10212800D1FC41F288390746D4F89030980742D557
:10213800B8F1000F3FF4D7AEA36D23F08053A36529
:10214800D1E64FF00008DDE73B6843F480733B605D
:10215800FEF7B8FC81463B68DB05D7D4FEF7B2FC36
:10216800A0EB09000228F6D9FEE6052B06D1D4F823
:10217800903043F00403C4F89030CAE7D4F89020B4
:1021880022F00102C4F89020D4F8902022F0040232
:10219800C4F89020002BC2D1FEF794FC41F2883994
:1021A8000746D4F890309907C2D5FEF78BFCC01BC0
:1021B8004845F6D9D8E6FEF785FCC01B4845B3D993
:1021C800D2E6022B40F08F80E368EA6A03F003014D
:1021D800914224D1296B03F070020139B2EB011F3F
:1021E8001DD1696B03F4FE42B2EB012F17D1AA6B24
:1021F800073A03F4003118BF012291420FD1EA6B6C
:10220800520803F4C001013AB1EB425F07D12A6CCE
:10221800520803F0C063013AB3EB426F4AD00C2E68
:102228003FF406AE23685A013FF502AE2368DB008F
:102238003FF5FEAD236823F080732360FEF742FC70
:10224800064623689F012FD4E268394B1340EA6A97
:1022580013436A6B43EA02232A6B013A43EA0213E7
:10226800AA6B120943EA4243EA6B5208013A43EA6D
:1022780042532A6C5208013A43EA4263E3602368F6
:1022880043F080732360E36843F08073E360FEF7F4
:1022980019FC0546236898013FF529AEFEF712FCA4
:1022A800401B0228F6D95FE6FEF70CFC801B0228CB
:1022B800C7D959E6236899013FF519AE236843F059
:1022C80080732360E36843F08073E360FEF7FAFBF2
:1022D800054623689A013FF50AAEFEF7F3FB401B5B
:1022E8000228F6D940E60C2E3FF4A2AD236823F06D
:1022F80080732360236813F0205F02BFE36823F034
:102308000303E360E36823F0887323F48033E36016
:10231800FEF7D8FB054623689B017FF5E8ADFEF77D
:10232800D1FB401B0228F6D91EE600BF0070004012
:102338008C809DF92DE9F0410D46044610B9012025
:10234800BDE8F081404A136803F007038B422AD3A3
:102358002368D90732D421688A075BD43A4A1368BC
:1023680003F00703AB425DD811F0040F374D64D179
:102378000B0706D5AB68226923F4605343EAC2030E
:10238800AB60FFF703FDAB68314AC3F30313BDE845
:10239800F041D35C03F01F03D8402E4B18602E4B3E
:1023A8001868FEF747BB136823F007030B43136055
:1023B800136803F007038B42C1D1C9E76268234E53
:1023C800032A33681AD113F0007FB8D0B36823F01A
:1023D80003031343B360FEF775FB41F288380746E1
:1023E800B368626803F00C03B3EB820FB3D0FEF757
:1023F80069FBC01B4045F3D90320A1E7022A02D19B
:1024080013F4003FE1E712B913F0020FDDE713F40C
:10241800806FDAE70D4AA068936823F0F00303435E
:1024280093609BE7136823F007032B43136013683B
:1024380003F00703AB4282D196E7AB68E26823F466
:10244800E0631343AB6093E70020024000100240B2
:10245800AC4C00080000002008000020014B186860
:10246800704700BF00000020F8B5434C0368E268DD
:10247800054690070E4629D0E26802F003029A4208
:1024880078D1002A76D0E3686A68C3F3021301336F
:1024980093426FD1236823F080632360FEF712FB19
:1024A800074623681A0130D4AB681F02A6B3012E71
:1024B8004DD12A6921695208531E21F4C00222F421
:1024C800FE423A4342EA4352226130E0022B11D0E5
:1024D800032B13D0012B4DD1226812F0020F49D0E3
:1024E800E0686A6820F07300013A184340EA021075
:1024F800E060CFE7226812F4806FF0E7226891036A
:10250800EED4226812F4802FE9E7FEF7DBFAC01B4D
:102518000228C6D90320F8BD2169EB6821F41F31D0
:1025280021F440711B09394341EA43412161236881
:1025380043F080632360FEF7C5FA064623681B0153
:1025480012D52369AA69134323610020E3E76B6965
:1025580022695B08591E22F0C06323F4FE433B4303
:1025680043EA41632361E2E7FEF7ACFA801B0228E5
:10257800E4D9CFE70120CEE700100240F8B53C4C83
:102588000368E268054690070E4627D0E26802F025
:1025980003029A4269D1002A67D0E3686A68C3F3E4
:1025A80002130133934260D1236823F080532360E0
:1025B800FEF788FA074623689A002ED4AB681802FB
:1025C80096B36369296923F0C063490823F4FE437D
:1025D8000139034343EA4163636130E0022B11D0C0
:1025E800032B13D0012B40D1226812F0020F3CD0EC
:1025F800E0686A6820F07300013A184340EA021064
:10260800E060D1E7226812F4806FF0E72268910356
:10261800EED4226812F4802FE9E7FEF753FAC01BC4
:102628000228C8D90320F8BD6269EB6822F41F327A
:1026380022F440721B09024342EA43426261236862
:1026480043F080532360FEF73DFA064623689B005B
:1026580005D563696A69134363610020E3E7FEF700
:1026680031FA801B0228F1D9DCE70120DBE700BF43
:10267800001002402DE9F347066816F40066044688
:1026880009D0416EB1F5000F22D013D831B3B1F59E
:10269800800F2AD001262368D80409D5A16EB1F18C
:1026A800007F2CD026D881B3B1F1807F70D001266D
:1026B800354639E0B1F5400FECD13B4A616ED2F8AE
:1026C800883023F440030B43C2F888300026E2E741
:1026D800354AD36843F48033D360EEE70430FFF71C
:1026E800C3FE06460028D6D1E7E700212030FFF7D1
:1026F80045FFF6E7B1F1407FD9D1354609E02A4ACE
:10270800D36843F48033D360F7E7201DFFF7ACFEAE
:102718000546002D42D1244AA16ED2F8883023F014
:1027280040730B43C2F888302368990340F15E81F7
:102738001D4FBB6DDA0033D4BB6D43F08053BB65CE
:10274800BB6D03F080530193019B4FF00108DFF844
:102758005C90D9F8003043F48073C9F80030FEF774
:10276800B1F98246D9F80030DB0521D53DBBD7F851
:10277800903013F4407340F00F81D7F89030D4F8BC
:10278800842023F440731343C7F89030354616E08D
:10279800002104F12000FFF7F1FEB9E72E46C3E758
:1027A8004FF00008D3E700BF00100240007000405F
:1027B800FEF788F9A0EB0A000228D3D90325B8F15F
:1027C800000F03D0BB6D23F08053BB652368DA0785
:1027D80008D59D49A06BD1F8882022F00302024356
:1027E800C1F888209F0708D59749E06BD1F8882061
:1027F80022F00C020243C1F888205E0708D59249EE
:10280800206CD1F8882022F030020243C1F88820D9
:10281800180708D58C49606CD1F8882022F0C002CE
:102828000243C1F88820D90608D58749A06CD1F899
:10283800882022F440720243C1F888209A0608D5FD
:102848008149E06CD1F8882022F440620243C1F843
:1028580088209F0508D57C49E06DD1F8882022F4AE
:1028680040220243C1F888205E0508D57649206ECB
:10287800D1F8882022F440120243C1F88820580673
:1028880008D57149206DD1F8882022F440520243BE
:10289800C1F88820190608D56B49606DD1F88820E1
:1028A80022F440420243C1F88820DA0508D5664977
:1028B800A06DD1F8882022F440320243C1F8882064
:1028C8009B0410D5604AE16ED2F8883023F040634B
:1028D8000B43B1F1006FC2F8883040F08980D368AB
:1028E80043F48013D36023681F0310D5564A216F21
:1028F800D2F8883023F040630B43B1F1006FC2F87F
:10290800883040F08180D36843F48013D360236813
:102918005E030FD54C4A616FD2F8883023F04063CC
:102928000B43B1F1006FC2F8883079D1D36843F412
:102938008013D3602368580412D54349A26FD1F895
:10294800883023F040531343B2F1805FC1F88830D8
:1029580071D10221201DFFF787FD002818BF054609
:102968002268110408D53849E06FD1F8883023F07F
:1029780080430343C1F88830D30309D5324AD4F8D9
:102988008010D2F8883023F000430B43C2F8883017
:10299800284602B0BDE8F087D4F8842093423FF47B
:1029A800ECAED7F89020D7F8903043F48033C7F8CE
:1029B8009030D7F8903022F4407123F48033D00758
:1029C800C7F89030C7F890107FF5D7AEFEF77AF8C1
:1029D80041F288390546D7F8903099073FF5CDAED2
:1029E800FEF770F8401B4845F5D9E7E63546EDE6B1
:1029F800B1F1806F7FF477AF0121201DFFF734FD1F
:102A0800002818BF05466EE7B1F1806F7FF47FAFED
:102A18000121201DFFF728FD002818BF054676E78D
:102A2800B1F1806F86D10121201DFFF71DFD00281F
:102A380018BF05467EE7B2F1005F91D1022104F18B
:102A48002000FFF79BFD88E700100240024A136848
:102A580043F00403136070470010024084B013B5BC
:102A6800044605A880E80E00E368174A43F04003CF
:102A7800E36000230193019B0133934201931DD826
:102A88002369002BF7DA0023019323690E4A43F0E8
:102A980001032361019B0133934201930ED82069FE
:102AA80010F00100F6D10E9B53B9A36B43F48033A9
:102AB800A36302B0BDE8104004B070470320F2E7FA
:102AC800A36B23F48033F3E7400D0300022A4AD1B5
:102AD800274B284A0B44934239D9274B274A0B44A2
:102AE800934236D9264AA1F57403A3F510539342AD
:102AF80031D9244AA1F18373A3F5E74393422CD338
:102B0800214B224A0B44934229D9214B214A0B4499
:102B1800934226D3204B214A0B44934223D3204A85
:102B2800A1F1B773A3F5585393421ED31D4B1E4A08
:102B38000B44934234BF07230623C26822F4705221
:102B4800C260C26842EA8323C360002070470F2333
:102B5800F3E70E23F1E70D23EFE70C23EDE70B2353
:102B6800EBE70A23E9E70923E7E70823E5E700BFDE
:102B7800405327FFFF340C00401E1BFF3F420F004D
:102B88007F4F120020D6130060B6E5FE5FE3160003
:102B980000D3CEFE40771B00C05BB3FEC09121007E
:102BA80020753800E05459FEE09C4100836843F0EA
:102BB8000103836000207047836823F0010383606A
:102BC8000020704738B5C368012923F0C043054683
:102BD800C36010D1C36843F00053C36000240120D0
:102BE800FDF776FF6B69D90704F1010415D4322C7F
:102BF800F5D1012038BD0029FBD1C36843F08043DB
:102C0800C3600C460120FDF763FF6B69DA0704F126
:102C1800010402D5322CF5D1EBE7A4F13203584276
:102C28005841E7E782B000230F4A0193019B013323
:102C38009342019315D80369002BF7DA8901002321
:102C480041F02001084A01930161019B013393423D
:102C5800019306D8036913F02003F6D1184602B091
:102C680070470320FBE700BF400D030082B000233C
:102C78000E4A0193019B01339342019313D80369D0
:102C8800002BF7DA00230193084A10230361019B04
:102C980001339342019306D8036913F01003F6D168
:102CA800184602B070470320FBE700BF400D030041
:102CB800D0F800381943C0F8001800207047000009
:102CC80084B02DE9F843044609A880E80E00139F54
:102CD80000238846194603F1400204EB82020133BF
:102CE8000F2B5160F7D104F50066002F64D173688B
:102CF80043F002037360A36B23F40013A3632368F8
:102D080043F040032360236843F0800323600025D9
:102D1800C4F8005ED4F80038C4F80038032120460F
:102D2800FFF7C6FF10212046FFF77CFF014620462B
:102D3800FFF79CFF0843C0B2401B356118BF012054
:102D4800756104F51063F5612A464FF090414FF024
:102D5800006C4FF67F3E454533D1002204F53063C1
:102D680011464FF090454FF0006C4FF67F3E4245BC
:102D780039D1336923F4807333610023A3616FF081
:102D880080436361A36943F01003A361A2691F4BE9
:102D98001343A3610F9B1BB1A36943F00803A3610D
:102DA800012F01BFA36943F0804343F00403A361EB
:102DB800BDE8F84304B07047A36B43F40013A36362
:102DC800A5E7D3F80090B9F1000F0ADA3DB9C3F8C6
:102DD80000C01A610135C3F808E02033BBE7196069
:102DE800F7E71A60F5E7D3F80090B9F1000F0ADAAF
:102DF8003AB9C3F800C019610132C3F808E02033BA
:102E0800B5E71D60F7E71960F5E700BF00383C80BB
:102E1800D0F8083813F0020F00F5006014BF022044
:102E28000F20704730B50D78012405F00F039C4042
:102E38004B7800F50062012B00EB4510D36918D1DF
:102E48001C43D461D0F800391A0410D48A68D0F829
:102E58000049C2F30A03CA78234343EA824343EA98
:102E6800855343F0805343F40043C0F800390020F1
:102E780030BD43EA0444D461D0F8003B1B04F6D4C7
:102E88008B68D0F8002BC3F30A031343CA7843EACC
:102E9800824343F0805343F40043C0F8003BE6E725
:102EA80010B50A784978012900EB421300F5006053
:102EB80002F00F0222D1D3F8001900290BDAD3F857
:102EC800001941F00061C3F80019D3F8001941F066
:102ED8008041C3F80019C46B012101FA02F224EA07
:102EE8000204C463C16921EA0202C261D3F800196D
:102EF800144A0A40C3F80029002010BDD3F8001B6B
:102F080000290BDAD3F8001B41F00061C3F8001B5D
:102F1800D3F8001B41F08041C3F8001BC46B4FF489
:102F2800803101FA02F224EA0204C463C16921EA89
:102F38000202C261D3F8001B034A0A40C3F8002BFF
:102F4800DAE700BF007833EC0078F3EFF0B54B78A0
:102F58000D784E692D4FDFF8B8C0012B00EB4514F2
:102F680034D104F510631A69E6B93A401A611A694E
:102F780042F400221A611A6902EA0C021A61D4F8B2
:102F8800003943F00443C4F800394B6943B1D0F821
:102F9800342805F00F050123AB401343C0F834383B
:102FA8000020F0BD02EA0C021A611A693A401A615F
:102FB8008A68B24238BF4A611A6942F400221A612B
:102FC8004A691E69C2F312023243D7E7D4F8102BBC
:102FD80002EA0C02C4F8102BD4F8102B3A4004F57E
:102FE80030631A618A6806B14A61196941F400219F
:102FF80019611969C2F312020A431A61D4F8003B35
:1030080043F00443C4F8003BCAE700BFFFFF07E0F2
:103018000000F8FF033301329B0800EB023001EB9C
:103028008303994201D10020704751F8042B0260B4
:10303800F7E70000F8B54C780A784B69CE78534F1B
:10304800DFF850C1012C00EB42155ED105F5106484
:10305800D4F810E0F3B90EEA07072761276947F4A7
:1030680000272761276907EA0C072761D5F8004977
:10307800012E44F00444C5F8004934D043B1D0F8D7
:10308800343802F00F0101228A401A43C0F834286C
:103098000020F8BD0EEA0C0CC4F810C0D4F810C01B
:1030A8000CEA0707D1F808C027610CEB0307013FBA
:1030B800B7FBFCFC364FD4F810E007EACC4747EAE8
:1030C8000E072761D4F810C0C3F3120747EA0C07AC
:1030D800012E2761CAD1276927F0C04727612769D0
:1030E80047F00057C1E7D0F80848C96814F4807F52
:1030F800D5F800490CBF44F0005444F08054C5F89A
:1031080000499BB2FFF786FFC2E7D5F8104B8968E4
:1031180004EA0C04C5F8104BD5F8104B3C4005F5F3
:1031280030621461F3B91369C1F3120119431161D3
:10313800136943F400231361012E0CD1D0F8083829
:1031480013F4807FD5F8003B0CBF43F0005343F0E5
:103158008053C5F8003BD5F8003B43F00443C5F85D
:10316800003B95E70A4FD2F810C00B44013BB3FB74
:10317800F1F39CB207EAC34343EA0C0313611369F2
:103188006143C1F3120119431161D5E7FFFF07E05D
:103198000000F81F0000F8FF034670B590080024EF
:1031A80002F0030203F58055844210D301EB80003E
:1031B80062B103F580531C680023D90024FA01F199
:1031C800C154013399B28A42F7D1104470BD2E68B8
:1031D80041F824600134E7E74A780B78012A00EBCC
:1031E800431012D1D0F80029002A06DB2BB1D0F801
:1031F800003923F08043C0F80039D0F8003943F48F
:103208000013C0F8003900207047D0F8002B002ABE
:1032180006DB2BB1D0F8003B23F08043C0F8003B1D
:10322800D0F8003B43F40013C0F8003BEBE70B7801
:103238004A7800EB4310CB78012AA3F10203DBB2F2
:103248000FD1D0F80029012B22F40012C0F8002970
:1032580005D8D0F8003943F08053C0F80039002071
:103268007047D0F8002B22F40012012BC0F8002B75
:103278009EBFD0F8003B43F08053C0F8003BEEE718
:10328800D0F8003823F4FE63C0F80038D0F80038CE
:10329800090101F4FE611943C0F8001800207047C5
:1032A800D0F8003E23F00303C0F8003ED0F80438FD
:1032B80023F00203C0F8043800207047D0F8003E1D
:1032C80023F00303C0F8003ED0F8043843F00203AB
:1032D800C0F8043800207047426980691040704780
:1032E800D0F8183800F50060C0691840000C704725
:1032F800D0F8183800F50060C069184080B27047EF
:1033080000EB411100F50060D1F8082B406910402E
:10331800704710B5D0F81048D0F8343800EB411099
:1033280001F00F01CB4000F51060DB018068DBB2D3
:103338002343184010BD406900F001007047D0F8E1
:10334800003923F4FF6323F00703C0F80039D0F8ED
:10335800043843F48073C0F8043800207047000034
:10336800016C0C4A914200F5306303D9D0F8002B68
:10337800002A0DDB00221A611A6942F400221A6140
:103388001A6942F018021A611A6942F0C0421A61B9
:10339800002070470A30544F2023038000487047AC
:1033A8006400002020230380004870474400002068
:1033B8002023038000487047900000200A230380E0
:1033C800004870478400002038B5044641F2740074
:1033D80001F02AFCC4F8BC0208B9022038BD237CDD
:1033E800B3B94FF40073022201212046012501F0F0
:1033F80091FBA4F878514FF40073022281212046F2
:1034080001F088FB2046258700F0E4F80020E5E776
:103418004023022201212046012501F07BFBA4F86C
:1034280078514023E9E700002DE9F341D0F8BC8248
:10343800002304460D46ADF80630B8F1000F0ED053
:103448000B7813F060062ED0202E04D14A78FE2A7D
:1034580007D0FF2A19D02946204601F098F80326FC
:103468001DE04E88002EF6D1CF88012FF3D11A0621
:10347800F1D5D0F8C0329B6998473A46C8F80000A1
:103488004146204601F0AAF809E04A88002AE2D11C
:10349800CE88002EDFD11B06DDD400F0BFF8304601
:1034A80002B0BDE8F0814F780B2FD4D801A353F8B0
:1034B80027F000BFED340008233500085F3400080A
:1034C8005F3400085F3400085F3400085F34000888
:1034D8005F3400085F3400085F34000803350008D3
:1034E8001335000890F89C32032BB4D102220DF159
:1034F800060101F073F83E46D1E790F89C32032BA1
:10350800A9D1012208F10401BBE790F89C32032BF2
:10351800A1D18B78C8F80430C1E790F89C32032B0E
:10352800BDD14B88002BBAD1097901F011FB29795B
:10353800204600F03DF9B2E708B500F0B1F80020E8
:1035480008BD08B500F0CAF8002008BD38B5044623
:103558000121002501F0EEFAA4F8785181212046D6
:1035680001F0E8FAD4F8BC32258743B1204600F0D0
:103578006FF8D4F8BC0201F05BFBC4F8BC52002021
:1035880038BD19B1C0F8C012002070470320704739
:1035980038B5D0F8BC520446DDB105F580531A7F22
:1035A80032B99B6923B16B7A13B9012101F0DEFAB4
:1035B8008121204601F0DAFA6B7A022B09D18121A8
:1035C800204601F0D3FA20460121BDE8384001F039
:1035D800CDBA38BD70B5D0F8BC520446EDB105F58A
:1035E800805300202881A3F8600083F86200D4F893
:1035F800C0321B6898470121204601F0A9FA8121B1
:10360800204601F0A5FA05F5805220461F23BDE8A3
:1036180070401032012101F0F5BA70BD70B5D0F8D4
:10362800BC5204469DB14FF480732B81812101F077
:10363800ABFA0121204601F0A7FA05F58052204691
:103648001F23BDE870401032012101F0DBBA70BDC4
:10365800D0F8BC320BB100221A72704770B5D0F89E
:10366800BC420546C4B104F580530C4A1A6383F87A
:103678003C1004F581520023237210320D2381215E
:1036880001F0B2FA04F5805228461F23BDE87040C5
:103698001032012101F0B6BA70BD00BF5553425334
:1036A800D0F8BC2210B50446B2B1137A022B07D069
:1036B800033B012B10D80021BDE81040FFF7CEBF17
:1036C80002F580531A46597F1F3200F04FF900283F
:1036D80002DA01212046EFE710BD00002DE9F04194
:1036E800D0F8BC5204461DB12F7A1FB1012F52D019
:1036F800BDE8F08105F58056012173697363B369EC
:10370800B36301F08DFA1F280AD13269274B9A4218
:1037180006D1717F012903D8B37F013B0F2B0CD948
:103728002023717F0522204600F092FB02236B7252
:103738002046BDE8F041FFF72BBF05F580521F3248
:10374800204600F013F900282B7A07DA052BEFD171
:1037580001212046BDE8F041FFF780BF013B022B65
:10376800C6D9E9680029F4D0D4F8BC6206F58052BD
:10377800906B936982F83C70401A9063042232720D
:103788008B4228BF0B4605F1100220468121BDE877
:10379800F04101F029BA05F580531A46597F1F32C6
:1037A80000F0E4F80028A3DAD2E700BF55534243FB
:1037B800D0F8BC3210B50446A3B15B7A022B08D10D
:1037C800812101F0D3F920460121BDE8104001F024
:1037D800CDB90A0606D5012B04D0BDE81040012159
:1037E800FFF73CBF10BDD0F8BC3230B5B3B103F51C
:1037F800805494F8610003EBC00303F5805383F809
:103808004420002283F8401083F84520431CDBB293
:10381800042B14BF84F8613084F8612030BD2DE991
:10382800F04106460846D6F8BC12D6F8C02201F583
:10383800805501F11008B5F864302F6F5469EA6EAD
:103848005F43B7F5805F28BF4FF480574146B7FB09
:10385800F3F39BB2A047002808DA3046032204217C
:10386800FFF7C1FF4FF0FF30BDE8F081EA6EB5F811
:103878006430B7FBF3F002442C6FEA66AA6B241A93
:10388800D21B2C67AA632CB921463046FFF7E6FE07
:103898000020E9E76343B3F5805F28BF4FF4805306
:1038A80042460121304601F0ADF9F1E72DE9F84330
:1038B80006460846D6F8BC72D6F8C02207F58054EA
:1038C80007F11008B4F86430256FD2F81090E26E52
:1038D8005D43B5F5805F28BF4FF480554146B5FB81
:1038E800F3F39BB2C847002808DA304611220421B6
:1038F800FFF779FF4FF0FF30BDE8F8832B464246CB
:103908008121304601F070F9B4F86400E26EB5FB2D
:10391800F0F3206F1A44C01AA36BE2665B1B2067A2
:10392800A36310B903233B72E6E70020E4E710B570
:1039380008B1C26002B910BD013A92B283188C5C1A
:103948001C74F7E708B5D0F8BC324BB103F58053C7
:1039580011449B6E994206D921220521FFF743FFA6
:103968004FF0FF3008BD0020FCE700002DE9F743C9
:10397800D0F8BC420646884617462CB94FF0FF35AA
:10398800284603B0BDE8F08313782F2B44D8192BB1
:1039980010D8032B00F0BD80122B00F0EB80002B19
:1039A80000F09780202205213046FFF71CFF0223F4
:1039B8006372E3E71A3B152BF4D801A252F823F0FF
:1039C800153C0008CF3B0008AD390008AD390008A8
:1039D800073C0008AD390008AD390008AD390008CA
:1039E800AD3900082D3C0008AD3900087F3C0008BF
:1039F800AD390008AD390008CF3C0008AD390008E2
:103A08007B3D0008AD390008AD390008AD39000824
:103A1800AD3900082B3E0008A82B00F08B8138D860
:103A28005A2B00F0F9809E2BBCD1D0F8C03204F597
:103A3800835204F583515B68043208314046984745
:103A48000546002840F0FE8004F5805191F8623068
:103A5800022B00F0F780D7F80A2012BAE26003467A
:103A68000646581CDBB29342C0F029818B6E013B9D
:103A78001A0E22751A0C62751A0AA275E375B1F846
:103A8800643000225BBA22836383D7F80A301BBAFA
:103A9800EFE0AA2B86D1237A002B40F0B28104F5FF
:103AA8008059D9F81830C3B199F91C30002B14DBB0
:103AB800D0F8C03208469B68984730BBD6F8C03269
:103AC8004046DB6898470546002800F0A181272278
:103AD8001CE004F580539A692AB12022052130465A
:103AE800FFF781FE4AE793F86210022905D13A22CE
:103AF800FFF779FE0523237240E7D0F8C03240462D
:103B08009B6898470546002874D03A22022130461F
:103B1800EEE704F58055AB69002BDED012220021B8
:103B280004F1100001F0AAF8702323740C23E37544
:103B380095F8603095F861209A4213D004EBC302DF
:103B480002F58052013392F84010A17492F84410A3
:103B58002177DBB2042B92F84520627708BF002357
:103B680085F860301223E3603B79122B00D8E360BC
:103B7800002505E704F580539B69002BADD05578E7
:103B880015F0010511D095782DB9AD4906222046CA
:103B9800FFF7CDFEF4E6802D05D1AA49082220467C
:103BA800FFF7C5FEE4E7242298E7D0F8C03212797F
:103BB80001EBC108D96901EB88010B7905339A42F9
:103BC80028BF1A46E3E704F580523B7992F8621061
:103BD800012903F0030301D1022BE4D0012BD9B250
:103BE80003D1002382F8623003E0022904D182F86D
:103BF80062100025E560C3E60329FAD1F1E73B79B5
:103C0800003B04F5805218BF0123EBE73A798E494F
:103C1800172A28BF1722C2E7127A8C491B2A28BF05
:103C28001B22BCE7D0F8C0320DF102025B6801A983
:103C380040469847054628B904F5805393F8623002
:103C4800022B02D13A22022149E720610823E374BA
:103C5800019BA061013B1A0E22751A0C6275E3756F
:103C68001A0A02232376BDF80230A2755BBA638371
:103C78000C23E36084E6D0F8C03204F5835204F5DF
:103C880083515B680432083140469847054600284E
:103C9800D8D104F5805292F86230022BD2D0936EBC
:103CA800013B190E2174190C6174190AA174E3748B
:103CB800B2F86430A0825BBAE3820823D9E72344D0
:103CC8001E740346CDE6237A53BB04F5805595F957
:103CD8001C30002BBFF601AF95F86230022BB1D033
:103CE800D0F8C03208469B6898470028AAD1D7F870
:103CF800021009BAE966B7F8072052BA92B22A67E1
:103D08003046FFF71FFE0028FFF638AE2A6FB5F8D9
:103D180064305343AA699A427FF4DFAE02232372C8
:103D28004FF4805341463046E36003B0BDE8F043AA
:103D3800FFF7BCBD237A002BF2D104F5805595F925
:103D48001C30002BBFF6C9AE95F86230022B3FF449
:103D580079AFD0F8C03208469B68984700287FF4AE
:103D680071AFD7F8021009BAE966D7F8062012BA77
:103D7800C5E7237A002B44D104F58059D9F81830C7
:103D8800002B3FF4AAAE99F91C30002BFFF6A5AE24
:103D9800D0F8C03208469B68984700287FF452AF95
:103DA800D6F8C0324046DB689847054608B1272256
:103DB80049E7D7F8021009BAC9F86C10B7F8072014
:103DC80052BA92B2C9F870203046FFF7BBFD0028FE
:103DD800FFF6D4ADD9F87020B9F864305343D9F858
:103DE800182093427FF479AE0121B3F5805F2172E8
:103DF80028BF4FF4805304F11002304600F002FF50
:103E0800BEE54146304603B0BDE8F043FFF707BDC5
:103E1800D7F8021009BAC9F86C10D7F8062012BAF8
:103E2800D0E77D7815F002057FF4BDAE04F5805328
:103E3800D3E91B12FFF786FD0028BFF6DBAE9DE530
:103E4800E2000020E8000020CB000020B0000020A5
:103E5800D0F8BC1230B5B9B101F5805494F86100BE
:103E680001EBC00101F5805181F84430431CDBB2FD
:103E780081F84020042B4FF0000281F8452014BF40
:103E880084F8613084F8612030BD78B10023C0F82F
:103E9800B832C0F8C032C0F8CC3209B1C0F8B41298
:103EA800012380F89C32027000F0F8BD03207047AF
:103EB80037B500250446ADF8065059B1CB6AC0F8AD
:103EC800B8124BB10DF106009847C4F8CC02284649
:103ED80003B030BD0320FBE71846F9E700F00CBE3D
:103EE800D0F8B8320BB11B6818470320704708B5E3
:103EF800D0F8B8320BB15B689847002008BD38B5D8
:103F0800044600F2AA25284600F036FB012394F85F
:103F1800AA12C4F89432B4F8B032C4F8983201F056
:103F28001F03012B08D0022B0CD08BB92946204641
:103F3800BDE8384000F026B929462046BDE838409B
:103F480000F064BA29462046BDE8384000F084BA3B
:103F5800204601F08001BDE8384000F007BE70B58A
:103F680004461546F9B9D0F89432032B0CD1D0E9A0
:103F7800573293420AD99B1A9A42C0F85C3128BF3B
:103F88001A46294600F03FFB002070BD90F89C328D
:103F9800032B04D1D0F8B8321B6903B198472046E7
:103FA80000F039FBF0E790F89C32032BECD1D0F805
:103FB800B8329B69002BE7D0BDE87040184773B54D
:103FC8000446164600293FD1D0F89422022A0FD180
:103FD800D0E90752954215D9AA1A0191C261314612
:103FE80000F009FB019B1A461946204600F00AFE1C
:103FF80094F8A032012B02D1002384F8A0320020CB
:1040080002B070BD0ED1826995420BD8D0F8985293
:10401800AA4207D20A46019100F0EDFA019BC4F8C2
:104028009832E0E794F89C32032B05D1D4F8B832E3
:10403800DB680BB1204698478021204600F096FDAA
:10404800204600F0F3FAD3E790F89C32032BD6D140
:10405800D0F8B8325B69002BD1D002B0BDE870400F
:104068001847012370B580F89C32D0F8B832002187
:104078000446C0F894124160C0F8A412DBB1D0F82D
:10408800BC2212B15B6803B1984700221146402553
:1040980040230126204600F03DFDA4F86461C4F8E1
:1040A80060512B4600228021204600F033FDA68473
:1040B8002562002070BD0320FCE7017400207047D2
:1040C80090F89C32DBB280F89D32042380F89C3251
:1040D8000020704790F89C32042B02BF90F89D3264
:1040E800DBB280F89C3200207047D0F8B82208B5BF
:1040F80042B190F89C32032B02D1D36923B198477F
:10410800002000E0032008BD1846FCE7D0F8B822DC
:1041180008B542B190F89C32032B02D1136A23B13F
:104128009847002000E0032008BD1846FCE7D0F8B7
:10413800B82208B542B190F89C32032B02D1536AD9
:1041480023B19847002000E0032008BD1846FCE78B
:1041580000207047012208B580F89C22D0F8B822C8
:1041680012B1526801799047002008BD10B580212E
:10417800044600F0FBFC20460021BDE8104000F09A
:10418800F5BC0000F7B50D7805F06005202D044654
:104198000E4614D0402D12D0002D40F000814F78EB
:1041A800092F00F2FC80DFE817F001012301FA0073
:1041B8001901FA0082001300FA00E9009E00D4F801
:1041C800B8329B683146204603B0BDE8F040184736
:1041D8000023ADF806304B881A0A013A062A37D868
:1041E800DFE802F0041C293636505A00D0F8B43201
:1041F8001B68207C0DF106019847F288002A00F020
:10420800F380BDF806301BB39A4228BF1A46ADF8B2
:1042180006200146204600F0E1F91CE0027CD0F8B7
:10422800B83232B99B6A0DF10600984702234370F1
:10423800E3E7DB6AF7E7DBB2052B09D8DFE803F031
:10424800030E12161A1ED0F8B4325B68002BD0D1B8
:104258002046FFF78BFF284603B0F0BDD0F8B432F4
:104268009B68F3E7D0F8B432DB68EFE7D0F8B432F4
:104278001B69EBE7D0F8B4325B69E7E7D0F8B432F2
:104288009B69E3E7037C002BE2D1D0F8B8320DF14B
:1042980006005B6B9847B0E7037C002BD8D1D0F8B9
:1042A800B8320DF106001B6B98470723BFE78B88D0
:1042B800002BCDD1CB88002BCAD14E887F2EC7D8F2
:1042C80090F89C32032BC3D0F1B280F89E1200F014
:1042D8007DFC204600F09FF91EB1022384F89C3231
:1042E800B9E70123FAE78E78474F012E3E7003D9CC
:1042F800FFF73CFF0325AEE790F89C32022BDAB2B9
:1043080008D0032A14D0FFF731FF39782046FFF789
:10431800EEFDEFE7002E67D001214160FFF7E0FDD9
:1043280005462046002D94D100F075F90323D5E702
:104338005EB9022380F89C3246603146FFF7D7FD0C
:10434800204600F068F9354685E7416801294BD0D9
:10435800C9B2FFF7CCFD397861602046FFF7C0FD90
:104368000646002840D02046FFF700FF2179204666
:10437800FFF7BDFD022384F89C32E4E7CA88012ACE
:104388007FF466AF90F89C120229CBB205D833B1FE
:104398000146002341F8083F3CE7032B04D02046A0
:1043A800FFF7E4FE002556E7011D33E790F89C323D
:1043B800013B022BF3D8CB88022B7FF449AF0123B2
:1043C800C360D0F8A4320BB10323C360022204F106
:1043D8000C01204600F002F93D463CE74B88012BD2
:1043E8007FF439AFC4F8A432204600F014F932E75C
:1043F80090F89C32013B022BD1D84B88012B7FF4DB
:104408002AAF0023EEE700BFC401002070B50B7887
:1044180003F06002402A04460E4601D05B0616D41B
:1044280094F89C32013B022B11D83379012B0ED81A
:10443800D4F8B83231469B6820469847F388054639
:104448001BB910B9204600F0E6F8284670BD204692
:10445800FFF78CFE0025F8E770B50B7803F06003D2
:10446800202B04460D4653D0402B51D073BB6B789C
:104478008A880979012B3AD0032B20D033BB90F8D6
:104488009C32022BD8B254D003281FD101F00F035D
:1044980012F0800F4FF0140202FB034358D09B8C9C
:1044A800A3B101F07F05013505EB850504EB850512
:1044B80011F07F0358D12B600222294644E090F87E
:1044C8009C32022BDAB22BD0032A03D02046FFF706
:1044D8004DFE0AE06B882BB94A0603D0EB880BB96E
:1044E80000F044FB204600F096F8002070BD90F8DC
:1044F8009C32022BDAB213D0032AE7D16B88002B47
:10450800F3D14E0601D000F03FFB204600F083F8BF
:10451800D4F8B832294620469B68BDE87040184751
:104528004B06D3D000F022FB8021204600F01EFB72
:10453800DBE74906CAD113064CBF04F1140104F5A0
:10454800AA7100230B600222204600F047F8CCE74E
:10455800B3F86431002BB9D001F07F05142303FBB5
:10456800054505F5AA75A3E7204600F01BFB08B131
:104578000123A0E728609FE70B7803704B7843700E
:104588004B8843808B888380CB88C380704710B565
:104598008021044600F0EAFA20460021BDE81040D8
:1045A80000F0E4BA30B588B100240138234601345C
:1045B800055D002DFAD1DBB201335B0013800B706F
:1045C80003234B70022310F8012F02B930BDCA54DF
:1045D8005A1CD2B202338D54DBB2F4E710B5022470
:1045E8001346C0E90622C0F894420A46002100F0AA
:1045F800FBFA002010BD08B513460A46002100F05A
:10460800F3FA002008BD08B513460A46002100F059
:10461800F9FA002008BD08B504220023C0F8942246
:1046280019461A4600F0E0FA002008BD08B5052230
:104638000023C0F8942219461A4600F0E3FA002035
:1046480008BD000008B50F490F480022FFF71DFC00
:1046580008B1FBF777FF0D490B48FFF729FC08B1B4
:10466800FBF770FF0A490848FEF78BFF08B1FBF714
:1046780069FF0548FFF732FC18B1BDE80840FBF7B1
:1046880061BF08BDF0000020C80100200C00002018
:1046980040010020122301480B8070470C010020C4
:1046A800042301480B80704720010020002370B5C7
:1046B8004D1C1E46040FB0F1204F34BF3034373440
:1046C80001F8134005F813600133DCB2A2424FEA47
:1046D8000010EFD870BD00001A2310B50B800A4BEC
:1046E800D3F89005D3F8982580180AD0D3F89445C4
:1046F80006490822FFF7DAFF042210312046FFF7A7
:10470800D5FF034810BD00BF0070FF1F2601002021
:104718002401002010B5044C04480A462146FFF73E
:1047280041FF204610BD00BF98040020EC4C000853
:1047380010B5044C04480A462146FFF733FF2046CB
:1047480010BD00BF98040020FF4C000810B5044CB1
:1047580004480A462146FFF725FF204610BD00BF42
:1047680098040020124D000810B5044C04480A466D
:104778002146FFF717FF204610BD00BF9804002010
:104788001D4D0008002070470020704770B51403C5
:104798000D464FF4805224482146FBF7F9FF6B1E63
:1047A80005F6FF7213F8011F71B99342FAD101227D
:1047B8001D4B002613F8011BFF2925D10136B6F53C
:1047C800805FF7D172BB0EE00022F1E701220421DD
:1047D8001648FCF7F9FA2046FCF75AF81348002265
:1047E8000421FCF7F1FA124801224FF48071FCF71A
:1047F800EBFA4FF4805221462846FBF7F9FF0C48A4
:1048080000224FF480710BE0002ADFD00421074812
:10481800FCF7DAFA2046FCF73BF8044800220421AA
:10482800FCF7D2FA002070BD98060020000400486A
:104838000010004808B5FCF759F8022896BF024B4B
:104848000320185608BD00BF2B4D000830B587B0AF
:1048580001A80D461446FCF781F8019B1B0B2B6041
:1048680000204FF48053238007B030BD10B50C46AC
:10487800114609031A030F48FBF78AFF0D49002266
:104888000B4613F8010BFF2809D10132B2F5805FFE
:10489800F7D10021204600F0F1F9002010BD631E79
:1048A80004F6FF7411F8012B03F8012F9C42F9D18B
:1048B800F3E700BF9806002008B5FCF717F808B919
:1048C800002008BD0448FDF739F8FBF7EFFE002883
:1048D800F6D00320F5E700BF7C01002010B5AAB090
:1048E80004461422002103A800F0C8F988220021F8
:1048F80008A800F0C3F92368B3F1A04F57D14FF4CB
:10490800005308934FF0806323930123CDE90933C3
:104918004FF0300E0723CDE90BE304220223CDE943
:104928000D2308A84FF480130F93FDF7A3FE08B1D9
:10493800FBF708FE204CE36C43F00103E364E36CEF
:1049480003F001030093009B4FF4C0520223CDE90A
:10495800032300210323CDE905134FF090400A23D8
:1049680003A90793FCF752F9E36C43F48053E3641B
:10497800E36C03F480530193019BA36DD80018D412
:10498800A36D43F08053A365A36D03F08053029396
:10499800029BFCF7F7FEA36D23F08053A36500226A
:1049A80043201146FCF7BAF84320FCF7E9F82AB08F
:1049B80010BDFCF7E7FEF2E70010024000F5717148
:1049C800D0F80404FFF79BBA1C2303FB0103D0F8BB
:1049D8000404D3F80822FFF7C2BA1C2303FB01031F
:1049E800D0F804049A6CFFF7EABAD0F80404FFF789
:1049F8007CBBC368022B10B5044601D0FBF7A2FDAF
:104A0800D4F804040121FFF758FBD4F80404BDE8E6
:104A18001040FFF726BB00000268D2F8003E10B530
:104A280043F001030446C2F8003ED0F80404FFF73F
:104A380047FB236A23B1034A136943F00603136152
:104A480010BD00BF00ED00E00268D2F8003E23F080
:104A5800010310B5C2F8003E036A044633B1064AA2
:104A6800136923F006031361FBF716FDD4F8040459
:104A7800BDE81040FFF72EBB00ED00E0D0F80404BD
:104A8800FFF755BBD0F80404FFF740BBD0F8040487
:104A9800FFF75EBBD0F80404FFF75CBB08B50378EA
:104AA80002462BBB13484FF0A041C0F80424C2F8BB
:104AB800C4020622C0E900120222C0E90623C0E9A6
:104AC8000833C0E90B33C2608362FCF782F908B18E
:104AD800FBF738FD80210748FCF7F6FD402200214E
:104AE8000448FCF7D1FD034880220121FCF7CCFDE6
:104AF800002008BD9816002008B5D0F8C402FCF7BD
:104B0800F3F9032896BF024B0320185C08BD00BFC9
:104B1800524D000810B51446D0F8C4021A46234670
:104B2800FCF784FC032896BF014B0320185C10BDDA
:104B3800524D000808B5D0F8C402FCF7AFFC0328B2
:104B480096BF024B0320185C08BD00BF524D0008F9
:104B580008B5D0F8C402FCF77EFD032896BF024BC7
:104B68000320185C08BD00BF524D000808B5D0F8F6
:104B7800C402FCF703FD032896BF024B0320185C10
:104B880008BD00BF524D000808B5D0F8C402FCF7B4
:104B98002CFD032896BF024B0320185C08BD00BFFC
:104BA800524D000811F0800FD0F8C4324FF01C02AB
:104BB8001BBF01F07F0102FB013102FB013191F8BB
:104BC8003E0008BF91F8FE017047000008B5D0F814
:104BD800C402FCF717FC032896BF024B0320185C9D
:104BE80008BD00BF524D000808B5D0F8C402FCF754
:104BF800AAFC032896BF024B0320185C08BD00BF1F
:104C0800524D000808B5D0F8C402FCF776FC03281A
:104C180096BF024B0320185C08BD00BF524D000828
:104C2800D0F8C402FCF787BC00487047A01A0020DF
:104C38007047000070B50D4D0D4C641BA410002684
:104C4800A64209D10B4D0C4C00F020F8641BA410AF
:104C58000026A64205D170BD55F8043B9847013699
:104C6800EEE755F8043B98470136F2E7584D00083F
:104C7800584D0008584D00085C4D00080244034692
:104C8800934200D1704703F8011BF9E7F8B500BF5C
:104C9800F8BC08BC9E467047F8B500BFF8BC08BC15
:044CA8009E4670476D
:104CAC0000000000000000000102030406070809D0
:104CBC00A0860100400D0300801A060000350C0090
:104CCC0040420F0080841E0000093D0000127A0053
:104CDC000024F40000366E010048E801006CDC0290
:104CEC0053544D6963726F656C656374726F6E6952
:104CFC0063730053544D3332204D617373205374DE
:104D0C006F72616765004D534320436F6E66696730
:104D1C00004D534320496E746572666163650000F3
:104D2C000301008002021F00000053544D2020207C
:104D3C00202050726F647563742020202020202066
:0C4D4C002020302E303100030103000055
:044D5800AD010008A1
:044D5C0089010008C1
:104D600000093D000100000010000000D1330008E0
:104D70005535000831340008000000000000000034
:104D8000413500084B35000800000000000000001D
:104D900000000000A1330008AD330008B93300085B
:104DA000C533000809022000010104C032090400D3
:104DB00000020806500507058102400000070501B2
:104DC0000240000009022000010104C03209040071
:104DD00000020806500507058102000200070501D0
:104DE000020002000A06000200000040010000006C
:104DF00009072000010104C032090400000208066E
:104E0000500507058102400000070501024000002F
:104E10000026000000000000081200000000000052
:104E20000000000000000000000000220000000858
:104E30001200000000000000000000000000000060
:104E400000000000000200800080000820202020D8
:104E50009D460008A94600081D470008394700087C
:104E6000E14600085547000871470008120100029A
:104E70000000004083042A570002010203010000E1
:104E8000040309041A0300000000000000000000F1
:104E90000000000000000000000000000000000012
:104EA000C1480008554800083D4800088D470008E3
:104EB0007548000895470008914700082E4D0008E6
:04000005080009E9FD
:00000001FF
